{
  "contractName": "Agrochain",
  "abi": [
    {
      "anonymous": false,
      "inputs": [
        {
          "indexed": false,
          "internalType": "uint256",
          "name": "date_achat",
          "type": "uint256"
        },
        {
          "indexed": false,
          "internalType": "string",
          "name": "acheteur",
          "type": "string"
        },
        {
          "indexed": false,
          "internalType": "string",
          "name": "lieu",
          "type": "string"
        },
        {
          "indexed": false,
          "internalType": "string",
          "name": "nom_produit",
          "type": "string"
        },
        {
          "indexed": false,
          "internalType": "uint256",
          "name": "id_famer",
          "type": "uint256"
        }
      ],
      "name": "AchatCreated",
      "type": "event"
    },
    {
      "anonymous": false,
      "inputs": [
        {
          "indexed": false,
          "internalType": "uint256",
          "name": "id_agri",
          "type": "uint256"
        },
        {
          "indexed": false,
          "internalType": "string",
          "name": "nom_agri",
          "type": "string"
        },
        {
          "indexed": false,
          "internalType": "string",
          "name": "habitation_agri",
          "type": "string"
        },
        {
          "indexed": false,
          "internalType": "string",
          "name": "telephone_agri",
          "type": "string"
        },
        {
          "indexed": false,
          "internalType": "string",
          "name": "nom_produit",
          "type": "string"
        },
        {
          "indexed": false,
          "internalType": "string",
          "name": "prix_agri",
          "type": "string"
        },
        {
          "indexed": false,
          "internalType": "uint256",
          "name": "date_prod",
          "type": "uint256"
        },
        {
          "indexed": false,
          "internalType": "uint256",
          "name": "date_exp",
          "type": "uint256"
        }
      ],
      "name": "ProductCreated",
      "type": "event"
    },
    {
      "constant": true,
      "inputs": [],
      "name": "achatNumber",
      "outputs": [
        {
          "internalType": "uint256",
          "name": "",
          "type": "uint256"
        }
      ],
      "payable": false,
      "stateMutability": "view",
      "type": "function"
    },
    {
      "constant": true,
      "inputs": [
        {
          "internalType": "uint256",
          "name": "",
          "type": "uint256"
        }
      ],
      "name": "achats",
      "outputs": [
        {
          "internalType": "uint256",
          "name": "date_achat",
          "type": "uint256"
        },
        {
          "internalType": "string",
          "name": "acheteur",
          "type": "string"
        },
        {
          "internalType": "string",
          "name": "lieu",
          "type": "string"
        },
        {
          "internalType": "string",
          "name": "nom_produit",
          "type": "string"
        },
        {
          "internalType": "uint256",
          "name": "id_famer",
          "type": "uint256"
        }
      ],
      "payable": false,
      "stateMutability": "view",
      "type": "function"
    },
    {
      "constant": true,
      "inputs": [],
      "name": "productNumber",
      "outputs": [
        {
          "internalType": "uint256",
          "name": "",
          "type": "uint256"
        }
      ],
      "payable": false,
      "stateMutability": "view",
      "type": "function"
    },
    {
      "constant": true,
      "inputs": [
        {
          "internalType": "uint256",
          "name": "",
          "type": "uint256"
        }
      ],
      "name": "products",
      "outputs": [
        {
          "internalType": "uint256",
          "name": "id_agri",
          "type": "uint256"
        },
        {
          "internalType": "string",
          "name": "nom_agri",
          "type": "string"
        },
        {
          "internalType": "string",
          "name": "habitation_agri",
          "type": "string"
        },
        {
          "internalType": "string",
          "name": "telephone_agri",
          "type": "string"
        },
        {
          "internalType": "string",
          "name": "nom_produit",
          "type": "string"
        },
        {
          "internalType": "string",
          "name": "prix_agri",
          "type": "string"
        },
        {
          "internalType": "uint256",
          "name": "date_prod",
          "type": "uint256"
        },
        {
          "internalType": "uint256",
          "name": "date_exp",
          "type": "uint256"
        }
      ],
      "payable": false,
      "stateMutability": "view",
      "type": "function"
    },
    {
      "constant": false,
      "inputs": [
        {
          "internalType": "uint256",
          "name": "id_agri",
          "type": "uint256"
        },
        {
          "internalType": "string",
          "name": "_nom_agri",
          "type": "string"
        },
        {
          "internalType": "string",
          "name": "_telephone_agri",
          "type": "string"
        },
        {
          "internalType": "string",
          "name": "_habitation_agri",
          "type": "string"
        },
        {
          "internalType": "string",
          "name": "_nom_produit",
          "type": "string"
        },
        {
          "internalType": "string",
          "name": "_prix_agri",
          "type": "string"
        },
        {
          "internalType": "uint256",
          "name": "date_prod",
          "type": "uint256"
        },
        {
          "internalType": "uint256",
          "name": "date_exp",
          "type": "uint256"
        }
      ],
      "name": "createProduct",
      "outputs": [],
      "payable": false,
      "stateMutability": "nonpayable",
      "type": "function"
    },
    {
      "constant": false,
      "inputs": [
        {
          "internalType": "uint256",
          "name": "date_achat",
          "type": "uint256"
        },
        {
          "internalType": "string",
          "name": "_acheteur",
          "type": "string"
        },
        {
          "internalType": "string",
          "name": "_lieu",
          "type": "string"
        },
        {
          "internalType": "string",
          "name": "_nom_produit",
          "type": "string"
        },
        {
          "internalType": "uint256",
          "name": "id_famer",
          "type": "uint256"
        }
      ],
      "name": "createAchat",
      "outputs": [],
      "payable": false,
      "stateMutability": "nonpayable",
      "type": "function"
    }
  ],
  "bytecode": "0x608060405260008055600060015534801561001957600080fd5b506113c5806100296000396000f3fe608060405234801561001057600080fd5b50600436106100625760003560e01c8063053c3b2a146100675780634bfd125d146100815780635034735d146101f0578063597b7cfd146101f85780635a5f7476146104bf5780637acc0b2014610676575b600080fd5b61006f6108b8565b60408051918252519081900360200190f35b61009e6004803603602081101561009757600080fd5b50356108be565b60405180868152602001806020018060200180602001858152602001848103845288818151815260200191508051906020019080838360005b838110156100ef5781810151838201526020016100d7565b50505050905090810190601f16801561011c5780820380516001836020036101000a031916815260200191505b50848103835287518152875160209182019189019080838360005b8381101561014f578181015183820152602001610137565b50505050905090810190601f16801561017c5780820380516001836020036101000a031916815260200191505b50848103825286518152865160209182019188019080838360005b838110156101af578181015183820152602001610197565b50505050905090810190601f1680156101dc5780820380516001836020036101000a031916815260200191505b509850505050505050505060405180910390f35b61006f610a8d565b6104bd600480360361010081101561020f57600080fd5b81359190810190604081016020820135600160201b81111561023057600080fd5b82018360208201111561024257600080fd5b803590602001918460018302840111600160201b8311171561026357600080fd5b91908080601f0160208091040260200160405190810160405280939291908181526020018383808284376000920191909152509295949360208101935035915050600160201b8111156102b557600080fd5b8201836020820111156102c757600080fd5b803590602001918460018302840111600160201b831117156102e857600080fd5b91908080601f0160208091040260200160405190810160405280939291908181526020018383808284376000920191909152509295949360208101935035915050600160201b81111561033a57600080fd5b82018360208201111561034c57600080fd5b803590602001918460018302840111600160201b8311171561036d57600080fd5b91908080601f0160208091040260200160405190810160405280939291908181526020018383808284376000920191909152509295949360208101935035915050600160201b8111156103bf57600080fd5b8201836020820111156103d157600080fd5b803590602001918460018302840111600160201b831117156103f257600080fd5b91908080601f0160208091040260200160405190810160405280939291908181526020018383808284376000920191909152509295949360208101935035915050600160201b81111561044457600080fd5b82018360208201111561045657600080fd5b803590602001918460018302840111600160201b8311171561047757600080fd5b91908080601f0160208091040260200160405190810160405280939291908181526020018383808284376000920191909152509295505082359350505060200135610a93565b005b6104bd600480360360a08110156104d557600080fd5b81359190810190604081016020820135600160201b8111156104f657600080fd5b82018360208201111561050857600080fd5b803590602001918460018302840111600160201b8311171561052957600080fd5b91908080601f0160208091040260200160405190810160405280939291908181526020018383808284376000920191909152509295949360208101935035915050600160201b81111561057b57600080fd5b82018360208201111561058d57600080fd5b803590602001918460018302840111600160201b831117156105ae57600080fd5b91908080601f0160208091040260200160405190810160405280939291908181526020018383808284376000920191909152509295949360208101935035915050600160201b81111561060057600080fd5b82018360208201111561061257600080fd5b803590602001918460018302840111600160201b8311171561063357600080fd5b91908080601f0160208091040260200160405190810160405280939291908181526020018383808284376000920191909152509295505091359250610de4915050565b6106936004803603602081101561068c57600080fd5b5035611002565b60405180898152602001806020018060200180602001806020018060200188815260200187815260200186810386528d818151815260200191508051906020019080838360005b838110156106f25781810151838201526020016106da565b50505050905090810190601f16801561071f5780820380516001836020036101000a031916815260200191505b5086810385528c5181528c516020918201918e019080838360005b8381101561075257818101518382015260200161073a565b50505050905090810190601f16801561077f5780820380516001836020036101000a031916815260200191505b5086810384528b5181528b516020918201918d019080838360005b838110156107b257818101518382015260200161079a565b50505050905090810190601f1680156107df5780820380516001836020036101000a031916815260200191505b5086810383528a5181528a516020918201918c019080838360005b838110156108125781810151838201526020016107fa565b50505050905090810190601f16801561083f5780820380516001836020036101000a031916815260200191505b5086810382528951815289516020918201918b019080838360005b8381101561087257818101518382015260200161085a565b50505050905090810190601f16801561089f5780820380516001836020036101000a031916815260200191505b509d505050505050505050505050505060405180910390f35b60015481565b6003602090815260009182526040918290208054600180830180548651600293821615610100026000190190911692909204601f81018690048602830186019096528582529194929390929083018282801561095b5780601f106109305761010080835404028352916020019161095b565b820191906000526020600020905b81548152906001019060200180831161093e57829003601f168201915b50505060028085018054604080516020601f60001961010060018716150201909416959095049283018590048502810185019091528181529596959450909250908301828280156109ed5780601f106109c2576101008083540402835291602001916109ed565b820191906000526020600020905b8154815290600101906020018083116109d057829003601f168201915b5050505060038301805460408051602060026001851615610100026000190190941693909304601f8101849004840282018401909252818152949594935090830182828015610a7d5780601f10610a5257610100808354040283529160200191610a7d565b820191906000526020600020905b815481529060010190602001808311610a6057829003601f168201915b5050505050908060040154905085565b60005481565b60008054600190810180835560408051610100810182528c815260208082018d81528284018c9052606083018d9052608083018b905260a083018a905260c0830189905260e08301889052938652600281529190942084518155915180519293610b05939085019291909101906112f5565b5060408201518051610b219160028401916020909101906112f5565b5060608201518051610b3d9160038401916020909101906112f5565b5060808201518051610b599160048401916020909101906112f5565b5060a08201518051610b759160058401916020909101906112f5565b5060c0820151816006015560e082015181600701559050507fba7316c3cd6337fb8f6d3effa989c49414c0bdc8b46c5667537831969a442c3f888887898888888860405180898152602001806020018060200180602001806020018060200188815260200187815260200186810386528d818151815260200191508051906020019080838360005b83811015610c15578181015183820152602001610bfd565b50505050905090810190601f168015610c425780820380516001836020036101000a031916815260200191505b5086810385528c5181528c516020918201918e019080838360005b83811015610c75578181015183820152602001610c5d565b50505050905090810190601f168015610ca25780820380516001836020036101000a031916815260200191505b5086810384528b5181528b516020918201918d019080838360005b83811015610cd5578181015183820152602001610cbd565b50505050905090810190601f168015610d025780820380516001836020036101000a031916815260200191505b5086810383528a5181528a516020918201918c019080838360005b83811015610d35578181015183820152602001610d1d565b50505050905090810190601f168015610d625780820380516001836020036101000a031916815260200191505b5086810382528951815289516020918201918b019080838360005b83811015610d95578181015183820152602001610d7d565b50505050905090810190601f168015610dc25780820380516001836020036101000a031916815260200191505b509d505050505050505050505050505060405180910390a15050505050505050565b6001805481018082556040805160a0810182528881526020808201898152828401899052606083018890526080830187905260009485526003825292909320815181559151805191949293610e3e938501929101906112f5565b5060408201518051610e5a9160028401916020909101906112f5565b5060608201518051610e769160038401916020909101906112f5565b50608082015181600401559050507f999c65f1761b56f2f2e6eb808f75ad886b818fc6c9cb7dfb903c73da4f2e873a858585858560405180868152602001806020018060200180602001858152602001848103845288818151815260200191508051906020019080838360005b83811015610efb578181015183820152602001610ee3565b50505050905090810190601f168015610f285780820380516001836020036101000a031916815260200191505b50848103835287518152875160209182019189019080838360005b83811015610f5b578181015183820152602001610f43565b50505050905090810190601f168015610f885780820380516001836020036101000a031916815260200191505b50848103825286518152865160209182019188019080838360005b83811015610fbb578181015183820152602001610fa3565b50505050905090810190601f168015610fe85780820380516001836020036101000a031916815260200191505b509850505050505050505060405180910390a15050505050565b60026020818152600092835260409283902080546001808301805487519281161561010002600019011695909504601f810185900485028201850190965285815290949193909290919083018282801561109d5780601f106110725761010080835404028352916020019161109d565b820191906000526020600020905b81548152906001019060200180831161108057829003601f168201915b50505060028085018054604080516020601f600019610100600187161502019094169590950492830185900485028101850190915281815295969594509092509083018282801561112f5780601f106111045761010080835404028352916020019161112f565b820191906000526020600020905b81548152906001019060200180831161111257829003601f168201915b5050505060038301805460408051602060026001851615610100026000190190941693909304601f81018490048402820184019092528181529495949350908301828280156111bf5780601f10611194576101008083540402835291602001916111bf565b820191906000526020600020905b8154815290600101906020018083116111a257829003601f168201915b5050505060048301805460408051602060026001851615610100026000190190941693909304601f810184900484028201840190925281815294959493509083018282801561124f5780601f106112245761010080835404028352916020019161124f565b820191906000526020600020905b81548152906001019060200180831161123257829003601f168201915b5050505060058301805460408051602060026001851615610100026000190190941693909304601f81018490048402820184019092528181529495949350908301828280156112df5780601f106112b4576101008083540402835291602001916112df565b820191906000526020600020905b8154815290600101906020018083116112c257829003601f168201915b5050505050908060060154908060070154905088565b828054600181600116156101000203166002900490600052602060002090601f016020900481019282601f1061133657805160ff1916838001178555611363565b82800160010185558215611363579182015b82811115611363578251825591602001919060010190611348565b5061136f929150611373565b5090565b61138d91905b8082111561136f5760008155600101611379565b9056fea265627a7a7231582018d34e3f51596bd1c442f7d5ce9792b50801d988eb37a95d4a0d245f7822f3a364736f6c63430005100032",
  "source": "pragma solidity >=0.4.22 <0.9.0;\n\ncontract Agrochain {\n\n    uint public productNumber = 0;\n    uint public achatNumber = 0;\n\n    struct Product {\n        uint id_agri;\n        string nom_agri;\n        string habitation_agri;\n        string telephone_agri;\n        string nom_produit;\n        string prix_agri;\n        uint date_prod;\n        uint date_exp;\n    }\n\n        \n\n    struct Achat {\n        uint date_achat;\n        string acheteur;\n        string lieu;\n        string nom_produit;\n        uint id_famer;\n    }\n\n\n\n    mapping(uint => Product) public products;\n\n    mapping(uint => Achat) public achats;\n\n    event ProductCreated(\n        uint id_agri,\n        string nom_agri,\n        string habitation_agri,\n        string telephone_agri,\n        string nom_produit,\n        string prix_agri,\n        uint date_prod,\n        uint date_exp\n        \n    );\n\n        \n\n    event AchatCreated(\n        uint date_achat,\n        string acheteur,\n        string lieu,\n        string nom_produit,\n        uint id_famer\n    );\n\n\n    function createProduct(uint id_agri, string memory _nom_agri, string memory _telephone_agri, string memory _habitation_agri, string memory _nom_produit, string memory _prix_agri, uint date_prod, uint date_exp) public {\n        productNumber ++;\n        products[productNumber] = Product(id_agri, _nom_agri, _habitation_agri, _telephone_agri,_nom_produit, _prix_agri, date_prod, date_exp);\n        emit ProductCreated(id_agri, _nom_agri, _habitation_agri, _telephone_agri,_nom_produit, _prix_agri, date_prod, date_exp);\n    }\n\n\n\n   function createAchat(uint date_achat, string memory _acheteur, string memory _lieu, string memory _nom_produit, uint id_famer) public {\n        achatNumber ++;\n        achats[achatNumber] = Achat(date_achat, _acheteur, _lieu, _nom_produit, id_famer);\n        emit AchatCreated(date_achat, _acheteur, _lieu, _nom_produit, id_famer);\n    }\n\n\n}",
  "sourcePath": "/home/bess225/Bureau/front-agrochain/contracts/Agrochain.sol",
  "compiler": {
    "name": "solc",
    "version": "0.5.16+commit.9c3226ce.Emscripten.clang"
  },
  "schemaVersion": "3.4.3",
  "updatedAt": "2021-12-13T09:59:26.320Z",
  "networkType": "ethereum",
  "devdoc": {
    "methods": {}
  },
  "userdoc": {
    "methods": {}
  }
}